:020000040800F2
:100000005805002045010008170D0008FF0B0008E7
:10001000150D0008D5010008550F0008000000006C
:100020000000000000000000000000001B0D0008A0
:10003000D701000800000000190D00081D0D000880
:100040005F0100085F0100085F0100085F01000810
:100050005F0100085F0100085F0100085F01000800
:100060005F0100085F0100085F0100085F010008F0
:100070005F0100085F0100085F0100085F010008E0
:100080005F0100085F0100085F0100085F010008D0
:100090005F0100085F0100085F0100085F010008C0
:1000A0005F0100085F0100085F0100085F010008B0
:1000B0005F0100085F0100085F0100085F010008A0
:1000C0005F0100085F0100085F0100085F01000890
:1000D0005F010008D50E00085F0100085F010008FD
:1000E0005F0100085F0100085F0100085F01000870
:1000F0005F0100085F0100085F0100085F01000860
:100100005F0100085F0100085F0100085F0100084F
:100110005F0100085F0100085F0100085F0100083F
:100120005F0100085F0100085F0100085F0100082F
:10013000DFF80CD000F03CF8004800470110000840
:10014000580500200648804706480047FEE7FEE7BE
:10015000FEE7FEE7FEE7FEE7FEE7FEE7FEE7FEE777
:10016000710D000831010008D2B201E000F8012B46
:10017000491EFBD270470022F6E710B513460A4627
:1001800004461946FFF7F0FF204610BD30B505467E
:100190002A460B4612F8010B13F8014B08B1A04296
:1001A000F8D01CB1002802D06D1CF1E7284630BD04
:1001B000064C074D06E0E06840F0010394E80700B4
:1001C00098471034AC42F6D3FFF7B6FF5C11000835
:1001D0007C110008FEE770477047000070B50446C8
:1001E00000F010F90546601C02D004480078044471
:1001F00000F008F9401BA042FAD370BD04000020B3
:100200002DE9F84FDFF8C891002409F1040A0AF13A
:10021000040B23460F270BF1040ED1E00125A54066
:1002200006EA0502AA4276D1DFF8A8C14E68A6EB1D
:100230000C0866452BD00DDC032E34D005DC36B31C
:10024000012E19D0022E2FD11BE0112E16D0122E06
:100250002AD119E0B8F5881F19D006DCB8F5803F1F
:1002600015D0B8F5801F1FD111E0B8F5001F0ED0D2
:10027000B8F5041F18D10AE0CB6815E0CB681B1D48
:1002800012E0CB6808330FE0CB680C330CE08B68CE
:100290002BB1012B4FF0080303D0456104E0042388
:1002A00002E0056100E00023FF2A01D8064601E0D4
:1002B00000F104064FEA840501D9A5F12005D6F81E
:1002C000008007FA05FC28EA0C0803FA05F548EA5D
:1002D0000508C6F800804D68ED0070D53E4DAE694A
:1002E00046F00106AE61AD6924F0030605F0010594
:1002F00000953A4D06EB050CDCF80850A607360FC2
:1003000007FA06F825EA0805DFF8D480404503D14E
:100310004FF0000825E052E0DFF8C880404502D1E8
:100320004FF001081DE0DFF8C080404502D14FF0DA
:10033000020816E0DFF8B480404502D14FF0030810
:100340000FE0DFF8AC80404502D14FF0040808E030
:10035000DFF8A080404502D14FF0050801E04FF0E2
:10036000060808FA06F848EA0508CCF808804D683F
:10037000D9F80060ED034D4601D5164300E09643E1
:100380002E604D68DAF80060AD03554601D516437E
:1003900000E096432E604D68DBF80060ED025D469C
:1003A00001D5164300E096432E604D68DEF80060EC
:1003B000AD02754601D5164300E096432E60641CDD
:1003C0000A681646E2407FF429AFBDE8F88F0000C6
:1003D0000004014000001110001002400000014024
:1003E00000080140000C01400010014000140140D1
:1003F00000180140001C01400AB101617047090466
:10040000FBE70000014880687047000004000020FE
:10041000024881680278114481607047040000201E
:10042000074810B5016841F010010160032000F099
:1004300075F8002000F006F800F024F8002010BD48
:100440000020024070B50D4D04464FF47A712878B3
:10045000B1FBF0F00A490968B1FBF0F000F0ECFAEA
:1004600048B9102C07D200222146501E00F036F861
:1004700000206C6070BD012070BD000004000020F1
:10048000100000200C4808B5816941F0010181612C
:10049000816901F001010091C16941F08051C161A0
:1004A000C06900F0805000900448416821F0E0618C
:1004B00041F00071416008BD0010024000000140A1
:1004C000002809DB00F01F02012191404009800053
:1004D00000F1E020C0F8001170470000F0B40E4BAE
:1004E0001B680C46C3F30223C3F10705042D00D992
:1004F0000425191D072901D2002300E0DB1E012677
:1005000006FA05F1491E214099409E40761E16408C
:100510003143F0BC00F028BD0CED00E0064900F0CE
:10052000070208684FF6FF03184040EA0220034A1A
:1005300010430860704700000CED00E00000FA0571
:100540002DE9F0470F46050061D0434E306800F0BA
:100550000700B84209D2306820F007003843306005
:10056000306800F00700B84251D128683B4C810741
:1005700012D5400703D5606840F4E06060602878D9
:10058000000703D5606840F4605060606068A96847
:1005900020F0F000084360602878C00728D0686821
:1005A000012810D02168022810D0890700292EDAEE
:1005B000616821F0030101436160FFF723FF80467A
:1005C00041F288390DE021688903EFE78901EDE701
:1005D000FFF718FFA0EB0801494502D90320BDE849
:1005E000F0876068696800F00C00B0EB810FEFD114
:1005F000306800F00700B8420BD9306820F00700DF
:1006000038433060306800F00700B84201D0012064
:10061000E5E72878400705D56068E96820F4E060E0
:10062000084360602878000706D56068296920F4CF
:10063000605040EAC100606000F038F86168084A24
:10064000C1F30311515CC8400649086006480068C0
:10065000FFF7F8FE0020C2E7002002400010024031
:10066000441100081000002008000020044805493B
:1006700000684968044AC1F30221515CC8407047D0
:1006800010000020001002405411000804480549E1
:1006900000684968044AC1F3C221515CC8407047F0
:1006A00010000020001002405411000812A185B073
:1006B0000FC98DE80F0014A0144A00680490516817
:1006C000134801F00C03042B10D0082B0ED1C1F3FA
:1006D0008343C9031DF803000AD5516804AAC1F376
:1006E0004041515C0A4A5043B0FBF1F005B07047FD
:1006F00008494843FAE70000020304050607080911
:100700000A0B0C0D0E0F1010010200000010024029
:1007100000127A0000093D002DE9F84F040070D066
:100720002078C04DC00749D06868C0F38100012817
:1007300007D06868C0F38100022809D16868C00347
:1007400006D52868800339D560680028E7D035E0F1
:100750006068B0F5803F0BD010B1B0F5A02F11D07C
:10076000286820F480302860286820F4802002E087
:10077000286840F480302860606890B1FFF742FE3E
:1007800006460AE0286840F480202860F0E700BFB1
:10079000FFF738FE801B642873D828688003F7D5DC
:1007A0000CE0FFF72FFE064605E000BFFFF72AFE2C
:1007B000801B6428F0D828688003F7D420789A4EEC
:1007C00080074FF001094FF0000839D5686810F034
:1007D0000C0F07D06868C0F38100022809D168684F
:1007E000C00306D42868800714D52069012808D1E1
:1007F00010E02069B0B1C6F80090FFF703FE07468D
:1008000005E00AE1FFF7FEFDC01B0228C4D82868F6
:100810008007F7D52868616920F0F80040EAC10038
:1008200028600DE0C6F80080FFF7ECFD074604E005
:10083000FFF7E8FDC01B022823D828688007F7D4FB
:10084000207800072CD57948A169D9B1C0F800906B
:10085000FFF7D8FD074604E0FFF7D4FDC01B0228D0
:100860000FD8686A8007F7D571484FF4FA510068CD
:10087000B0FBF1F0009000BF0098411E0091FAD249
:100880000EE080E0C0F80080FFF7BCFD074604E002
:10089000FFF7B8FDC01B022875D8686A8007F7D437
:1008A0002078400760D5E8690027C00008D4E869CF
:1008B00040F08050E861E869012700F08050009026
:1008C0005C480168C90513D40168834641F480710E
:1008D0000160FFF797FD824606E000BFFFF792FD3B
:1008E000A0EB0A0064284ED8DBF80000C005F5D55F
:1008F000E06801280AD008B1052813D0286A20F042
:1009000001002862286A20F0040002E0286A40F012
:1009100001002862E06841F2883B98B1FFF772FD60
:1009200082460BE0286A40F004002862EEE700BF30
:10093000FFF768FDA0EB0A0159455AD8286A8007DD
:10094000F6D50CE0FFF75EFD824605E0FFF75AFDA5
:10095000A0EB0A0159454CD8286A8007F6D41FB18C
:10096000E86920F08050E861E06988B36968C1F304
:100970008101022944D00228C6F8608004D0FFF724
:1009800041FD044638E034E0FFF73CFD074604E053
:10099000FFF738FDC01B02282BD828688001F7D448
:1009A000206AB0F5803F05D16868A16820F4003066
:1009B00008436860D4E908010843696821F47411A8
:1009C00008436860C6F86090FFF71CFD044606E027
:1009D00025E000BFFFF716FD001B022809D8286894
:1009E0008001F7D51BE000BFFFF70CFD001B0228BC
:1009F00002D90320BDE8F88F28688001F4D40EE006
:100A00000128F7D06868226A00F48031914204D14D
:100A1000616A00F47010884201D00120EAE70020EA
:100A2000E8E7000000100240000042428004424219
:100A3000100000200070004010B5401EB0F1807F13
:100A400001D3012010BD4FF0E02460610F21601739
:100A500000F08AFA0020A06107202061002010BD6C
:100A600070B5040004D094F83900002510B106E0F8
:100A7000012070BD84F83850204600F023F824206F
:100A800084F839002068C16821F40051C160204613
:100A900000F092F92068016921F490410161206819
:100AA000416921F02A0141612068C16841F4005187
:100AB000C160E563202084F8390084F83A00002002
:100AC00070BD000030B585B00024009401940294FC
:100AD00003940068184988422CD11848816941F470
:100AE00080418161816901F480410491816941F013
:100AF000040181618069124D00F0040004904FF4FC
:100B0000007000900220019003200390694628465F
:100B1000FFF776FB2815CDE90004694628460294C4
:100B2000FFF76EFB002211462520FFF7D7FC25209A
:100B3000FFF7C6FC05B030BD003801400010024090
:100B4000000801402DE9F843044690F839001F469B
:100B500016460D46202850D1A5B19EB194F8380014
:100B600001284AD0012084F838004FF00008C4F86A
:100B70003C80212084F83900FFF744FCA68481469C
:100B8000E68426E00120BDE8F883E08C401EE08486
:100B9000A0684B46B0F5805F4FF000024FF0800137
:100BA0002046009703D000F063F9E8B90DE000F0AB
:100BB0005FF9C8B928882168C0F308004860206937
:100BC00008B16D1C05E0AD1C03E0216815F8010BB0
:100BD0004860E08C0028D8D14B46002240212046B6
:100BE000009700F045F908B10320CCE7202084F8F5
:100BF000390084F838800020C5E70220C3E7FEE70B
:100C000070B5194D044600F0010201212846FFF796
:100C1000F3FBC4F3400202212846FFF7EDFBC4F3C7
:100C2000800204212846FFF7E7FBC4F3C002082135
:100C30002846FFF7E1FBC4F3001210212846FFF716
:100C4000DBFBC4F3401220212846FFF7D5FBC4F399
:100C5000801240212846FFF7CFFBE2092846BDE875
:100C600070408021FFF7C8BB0018014030B585B047
:100C7000002418480094019402940394816941F07F
:100C800040018161816901F040010491816941F075
:100C900010018161816901F010010491816941F0C5
:100CA0000401816180690C4D00F004000490012270
:100CB000FF212846FFF7A0FBFF2000900120CDE98F
:100CC00001040320039069462846FFF799FA05B00E
:100CD00030BD000000100240001801400C4810B563
:100CE0000A4901604FF4E1314160002181600C222A
:100CF000C160C0E904128161C161FFF7B1FE002843
:100D000003D0BDE81040FFF767BA10BD00380140BE
:100D100018010020FEE7704770477047FFF778BB67
:100D200030B58FB028216846FFF725FA14210AA8AC
:100D3000FFF721FA01210804CDE9001000240294F4
:100D400002250491CDE907504FF4E0100990684660
:100D5000FFF7E2FC0F20CDE90A056802CDE90C405F
:100D600002210AA80E94FFF7EBFB0FB030BD000084
:100D70000D48016841F00101016041680B4A1140D2
:100D8000416001680A4A11400160016821F4802134
:100D90000160416821F4FE0141604FF41F01816050
:100DA0000449C00308607047001002400000FFF8CB
:100DB000FFFFF6FE08ED00E02DE9F0410446006873
:100DC0000169E26821F44051114301612169A06881
:100DD0000843616908432168CA6841F20C639A4379
:100DE0000243CA6020684169A26921F4407111433D
:100DF00041611E49206864253226884202D1FFF7EE
:100E000045FC01E0FFF732FC00EBC00101EB0011F3
:100E100060686FF018078000B1FBF0F2B2FBF5F2EA
:100E2000B1FBF0F37A4303EB8202B1FBF0F306EB84
:100E30000212B2FBF5F2B3FBF5F302F0F00202EBA3
:100E40000312B1FBF0F3B1FBF0F0B0FBF5F0784327
:100E500003EB800006EB0010B0FBF5F0216800F01A
:100E60000F0010448860BDE8F081000000380140A8
:100E70002DE9F041984617460E460446069D1DE0B2
:100E8000681C1BD02DB1FFF7BDFAA0EB0800A842EB
:100E900014D92068C16821F4D071C160206841690B
:100EA00021F001014161202084F8390084F83A00E2
:100EB000002084F838000320BDE8F0812068006835
:100EC00036EA000004D00020B842D9D00020F3E771
:100ED0000120F9E7014800F003B8000018010020E4
:100EE00070B502681168C9438B0617491AD40D788A
:100EF000164B174C15B1012D0BD00FE001250D70CD
:100F0000D66846F01006D6600268526822701D70DE
:100F100004E055681A78A554521C1A7003686FF0E3
:100F200020021A6002681368DB43DB060AD4D36828
:100F300023F01003D3600068C26822F02002C26070
:100F40000220087070BD0000020000200300002095
:100F500018000020FEE70000014A024900F023B813
:100F6000E90F0008140000200907090E002804DB1F
:100F700000F1E02080F80014704700F00F0000F14D
:100F8000E02080F8141D704702E008C8121F08C155
:100F9000002AFAD170477047002001E001C1121FFA
:100FA000002AFBD170472DE9F04116460F46044652
:100FB000002503E03946B047641C6D1C20780028EA
:100FC000F8D12846BDE8F08100FA01F2C1F108012C
:100FD000D2B2C8401043704720FA01F2C1F10801B3
:100FE0008840C0B21043704713B54FF6FF7301221B
:100FF00069460248FFF7A6FD00981CBD18010020B5
:10100000FFF70EFAFFF78CFEFFF730FEFFF766FEE4
:101010002F4D2868C16841F02001C1602DA0FFF765
:101020009BFF304F304C00264FF47A7838780228F6
:101030002CD12E492E48FFF7A9F820B12DA0FFF79B
:101040008BFF012009E0294929480831FFF79EF864
:1010500028B12DA0FFF780FF0220207009E023496E
:1010600023481031FFF792F818B12CA0FFF774FF56
:1010700026702868C16841F02001C1602A483E708E
:101080004FF4807106701A48FFF775F894F9000064
:10109000B8B101280DD00228C8D16078FFF7B0FDA3
:1010A00001216078FFF790FF60704046FFF796F8E7
:1010B000BCE76078FFF7A4FD01216078FFF78CFFA3
:1010C000F2E7FF206070FFF79BFDFD206070ADE749
:1010D0001801002068656C6C6F20776F726C642E4D
:1010E0000D0A000002000020000000202C11000862
:1010F0001800002049276D20696E206D6F64655FC0
:1011000031210D0A0000000049276D20696E206D15
:101110006F64655F32210D0A0000000049276D20D1
:1011200073746F70210D0A00030000206D6F6465F9
:101130005F3123006D6F64655F32230073746F70DD
:101140002300000000000000000000000102030472
:101150000607080900000000010203047C110008D2
:101160000000002018000000880F000894110008FB
:101170001800002040050000980F0008FFFD000047
:101180000100000010000000000000000024F40036
:04119000000000005B
:0400000508000131BD
:00000001FF
